:0300000002004EAD
:200008000000E2FBEAF2802C0000E0FBEAF08024E6B50202EBF62200E2B50202EBF22200DE
:20002800E0B50202EBF02230F6E0A88220F5D3EAC6F582228B822230F6E6A88220F5D980EE
:01004800CFE8
:0300A7000200490B
:050049001200E280FE40
:2000AA00E4F508F509F50AF50BC3E5089460E50994EAE50A9400E50B9400501BAC08AD096C
:2000CA00AE0AAF0B74012CF508E43DF509E43EF50AE43FF50B80D22275F30075F40075F5F4
:2000EA000075FDFF75FEFF75FFFF7580FF7590FF75A0FF1200AA75800075900075A00012B7
:04010A0000AA80E6E1
:06007D00E478FFF6D8FD57
:20005B007900E94400601B7A00900112780175A000E493F2A308B8000205A0D9F4DAF27538
:02007B00A0FFE4
:200083007800E84400600A790175A000E4F309D8FC7800E84400600C7900900001E4F0A37B
:0400A300D8FCD9FAB2
:0D004E0075810B12010EE58260030200496E
:04010E0075820022D4
:00000001FF
