:040000000200D632F2
:01000B0032C2
:0100130032BA
:01001B0032B2
:0100230032AA
:01002B0032A2
:01003300329A
:01003B003292
:01004300328A
:01004B003282
:01005300327A
:01005B003272
:01006300326A
:01006B003262
:01007300325A
:01007B003252
:01008300324A
:03008B0002031558
:200090000000E2FBEAF2802C0000E0FBEAF08024E6B50202EBF62200E2B50202EBF2220056
:2000B000E0B50202EBF02230F6E0A88220F5D3EAC6F582228B822230F6E6A88220F5D98066
:0100D000CF60
:030138000200D1F1
:0500D1001201C880FED1
:20013B00AF8290F804EFF02290F800E0FFBF4D0A90F801E0FFBF500280047582002290F8CB
:20015B0002E0FFBF480C90F803E0FFBF44047582012290F802E0FFBF4E0C90F803E0FFBF5A
:20017B0052047582022275820022C2A1C2A243FF0622C290C294C295C296C29743FEF1C205
:20019B0084C28643FD50C29343FE08020185C2AF12033E43C70274FC55BE4403F5BE000075
:2001BB0000E5BE540360EF4387010080E9120143AF8290F800E4F090F801F090F802F09041
:2001DB00F803F090F80EE0FE0E90F80EEEF090F80FE5BEF0BF01028007C007120185D0077A
:2001FB00758210C00712013B90F805E4F090F80A7412F090F806E4F090F807F01203351222
:20021B00047AAE8290F80BE518F0AD1690F80CEDF0AD1790F80DEDF0758230C00612013BF0
:20023B00D006D007EE7072C00712053375824012013B12034585820885830985F00AF50B97
:20025B0075825012013B120598AE82C006120345A882A983ACF0FDD006D007E8C39508FA11
:20027B00E99509FBEC950AFCED950BFDC374FF9A74FF9BE49CE49D50047AFF7BFF8A01908F
:20029B00F806E9F08B0290F807EAF0758260C007C00612013BD006D00790F805EEF0C00765
:2002BB001205B6AE82D00790F805E0700590F805EEF0C007120345AB82AC83ADF0FED00713
:2002DB00C374FF9B74FF9CE49DE49E50047BFF7CFF8B0290F808EAF08C0390F809EBF07570
:1A02FB008270C00712013BD007EF600875828012013B80FE12018D0201A925
:104FF0004D4F4E4F50494E4B010201980128000081
:09012F00E4F50CF50DF50EF50FD9
:20031500C0E0C0D07402250CF50CE4350DF50DE4350EF50EE4350FF50FC2ECD0D0D0E03242
:2003350075C90F439A20D2AF22539ADF75C90422A2AFE433FFC2AFAB0CAC0DAD0EAE0FEFDC
:2003550024FF92AF8B828C838DF0EE2285821085831112034585821285831385F014F5152A
:20037500120345A882A983AEF0FFE8C39512F8E99513F9EE9514FEEF9515FFAA10AB117C28
:0F039500007D00C3E89AE99BEE9CEF9D40D222C9
:2003A400AF82C2815386FD8FC1E58630E1FBE58620E0FBD28122AF82C2928F821203A4D22C
:2003C40092220203A485821985831A12034585821B85831C85F01DF51E209338120345A848
:2003E40082A983AEF0FFE8C3951BF8E9951CF9EE951DFEEF951EFFAA19AB1A7C007D00C345
:20040400EA98EB99EC9EED9F50CF7516FF7517FF75820022120345AC82AD83AEF0FFECC36B
:20042400951BFCED951CFDEE951DFEEF951EFFC374FE9C74FF9DE49EE49F50067AFE7BFF04
:2004440080048C028D038A168B17900014120361758201225386BF53F3D7D280C281C283F1
:20046400C285C292C2A043FD2B43FE0443FF0153FEF743F608221204589000C8120361C2DF
:200484008090006412036153F1FE75860075C53175C20043864043F328D281D292D2A0906F
:2004A4000014120361C2A0900014120361D2A09000141203619013881203C9E5827004754D
:2004C4008201227582061203BA7582171203C67582171203C67582171203C6A293E433F5AB
:2004E400187582041203BA9013881203C9E5827004758201227582001203BA75820F120337
:20050400C675820D1203C67582611203BA7582981203C67582011203C67582281203C6755F
:2005240082501203BA7582771203C6758200227582101203BA7E007F008E8274502FF58366
:20054400E493F582C007C0061203C6D006D0070EBE00010F8E048F05C3EC94F8ED94154081
:20056400D87582131203BA7E007F008E8274662FF583E493F582C007C0061203C6D006D03C
:20058400070EBE00010F8E048F05C3EC94F8ED941540D8227582121203BA90006412036101
:2005A40090EA601203C9E582700475820222758200227F00758202C0071203BA9013881225
:2005C40003C9E582D00770027F03758207C0071203BA7582A51203C690000A1203611204E8
:0605E40058D0078F8222AF
:06010500E478FFF6D8FDCE
:2000E3007900E94400601B7A009005EE78007593F0E493F2A308B800020593D9F4DAF275FB
:0201030093FF68
:20010B007800E84400600A79007593F0E4F309D8FC7800E84400600C790090F000E4F0A321
:04012B00D8FCD9FA29
:0D00D60075811E1205EAE58260030200D16B
:0405EA0075820022F4
:00000001FF
