:040000000200D632F2
:01000B0032C2
:0100130032BA
:01001B0032B2
:0100230032AA
:03002B000201EEE1
:01003300329A
:01003B003292
:01004300328A
:01004B003282
:01005300327A
:01005B003272
:01006300326A
:01006B003262
:01007300325A
:03007B000201E897
:01008300324A
:03008B0002049CD0
:200090000000E2FBEAF2802C0000E0FBEAF08024E6B50202EBF62200E2B50202EBF2220056
:2000B000E0B50202EBF02230F6E0A88220F5D3EAC6F582228B822230F6E6A88220F5D98066
:0100D000CF60
:030139000200D1F0
:0500D10012037080FE27
:20013C00AF8290F804EFF02290F800E0FFBF4D0A90F801E0FFBF500280047582002290F8CA
:20015C0002E0FFBF480C90F803E0FFBF44047582012290F802E0FFBF4E0C90F803E0FFBF59
:20017C0052047582022290F802E0FFBF4E0C90F803E0FFBF46047582032290F802E0FFBFB9
:20019C004E0C90F803E0FFBF57047582042275820022C2A1C2A243FF0622C290C294C295FF
:2001BC00C296C29743FEF1C284C28643FD50C29343FE080201AE74FC55BE4403F5BE000056
:2001DC0000E5BE540360044387010022758A00C2EB3275A110C2C732AFA5EFB5A50280FAE0
:2001FC00221201B6C29143FE021204CC43C70275A110C2C7D2ADD2AF75A2051201F412018F
:20021C00F475A40875A37774FC55BE4402F5BE000000E5BE5403600443870100C2AD53C7F0
:20023C00FD0204C31201B653FEFD438C02758A00C2EB438D02439A101204CC43C702D2AF1A
:20025C003091051201D280F8538DFD539AEF53C7FD0204C390F806E4F090F807F0120C6364
:20027C00AF8290F80B7828E2F07826E290F80CF07827E290F80DF0758230C00712013CD015
:20029C0007EF6003020320120D1D75824012013C1204D37800C0E0E582F2E58308F2E5F071
:2002BC0008F2D0E008F275825012013C120D82AF82C0071204D3AA82AC83ADF0FED0077821
:2002DC0000D3E29AF4B3FBB308E29CF4B3FCB308E29DF4B3FDB308E29EF4FEC374FF9B74E5
:2002FC00FF9CE49DE49E50047BFF7CFF8B0290F806EAF08C0390F807EBF0758260C00712DD
:20031C00013CD00790F805EFF0120DA0AF8290F805E0700590F805EFF01204D3AC82AD83BC
:20033C00AEF0FFC374FF9C74FF9DE49EE49F50047CFF7DFF8C0390F808EBF08D0490F809B6
:20035C00ECF075827012013C90F805E0F5822212013C80FE120144AF8290F80CE0FE90F89A
:20037C000DE0FC7D008E037E00ED4BFDEC4EFE90F800E4F090F801F090F802F090F803F0B5
:20039C0090F80EE0FC0C90F80EECF090F80FE5BEF0EF6003BF020FC007C006C0051201AEF2
:2003BC00D005D006D007758210C007C006C00512013C90F805E4F090F80A7413F01204C3B4
:2003DC00D005D006D007BF0315C007C006C0051224F975829012036BD005D006D007BF04DB
:2003FC00268D828E83C0071223C4AE82D00790F80BEEF0BE0207C007120270D0077582A0E3
:20041C00C00712036BD007C007120270D007EF600675828012036B1223A81201B61227C095
:20043C00AF827E00EF6007BE030040027F00EF6015C007C006120240758201122356AD8222
:20045C00D006D0078022C007C0061201FD122289E582D006D00760CC758202C007C00612FF
:20047C002356AD82D006D007BD04030E80027E00BD02B1C007C006120270D006D00780A4E7
:104FF0004D4F4E4F50494E4B010301980128000080
:0A012F007804E4F208F208F208F286
:20049C00C0E0C000C0D075D0007804E22402F208E23400F208E23400F208E23400F2C2ECB7
:2004BC00D0D0D000D0E03275C90F439A20D2AF22539ADF75C90422A2AFE433FFC2AF78045D
:2004DC00E2FB08E2FC08E2FD08E2FEEF24FF92AF8B828C838DF0EE22AF82AE83C007C00683
:2004FC001204D37808C0E0E582F2E58308F2E5F008F2D0E008F2D006D007C007C006120453
:20051C00D385820885830985F00AF50BD006D0077808D3E29508F4B3F508B308E29509F4FB
:20053C00B3F509B308E2950AF4B3F50AB308E2950BF4F50B8F028E037C007D00C3E5089A76
:0C055C00E5099BE50A9CE50B9D40AF22E1
:20056800AE82AF83E0FCA3E0FD74012CFAE43DFB8E828F83EAF0EBA3F08C828D83E493F5FA
:200588008222AF83E582780EF2EF08F2780CE2F52908E2F52A852982852A837810E0F2A3C9
:2005A800E008F2780EE22402F52108E23400F522852182852283E0A3E0FBA3E0FEA3E0FFCD
:2005C8008B02EEC423CAC423541F6ACA541FCA6ACAFBEFC42354E04BFBEFC423541FFE7FD7
:2005E800007810795CE2F308E209F3E409F309F38A828B838EF0EF1228167812C0E0E58297
:20060800F2E58308F2E5F008F2D0E008F2780EE22406F52308E23400F524852382852483CE
:20062800E0F525A3E0F526A3E0F527A3E0F5287812C3E2F5F0E52595F008E2F5F0E52695C9
:20064800F008E2F5F0E52795F008E2F5F0E52895F0504D8521828522837812E2F008E2A309
:20066800F008E2A3F008E2A3F07810D3E29400F4B3FCB308E29408F4C403CCC40354076CC6
:20068800CC5407CC6CCCFD7810E22CFC08E23DFD852982852A83ECF0EDA3F07D00020743ED
:2006A8007812D3E29525F4B3FBB308E29526F4B3FCB308E29527F4B3FEB308E29528F4FF51
:2006C800852382852483EBF0ECA3F0EEA3F0EFA3F0852182852283E0FBA3E0FCA3E0FEA38F
:2006E800E0FF7812D3E29BF4B3FBB308E29CF4B3FCB308E29EF4B3FEB308E29FF4FF852106
:2007080082852283EBF0ECA3F0EEA3F0EFA3F07810E2FE08E2C403CEC40354076ECE540728
:20072800CE6ECEFF7810E2C39EFE08E29FFF852982852A83EEF0EFA3F07D01780EE2240289
:20074800FE08E23400FF8E828F83E0A3E0A3E0A3E0C3940140030207E4C0058E828F83E09C
:20076800FAA3E0FBA3E0FCA3E08C058B048A037A008E828F83EAF0EBA3F0ECA3F0EDA3F057
:20078800780EE22406FE08E23400FF8E828F83E0FAA3E0FBA3E0FCA3E08C288B278A26759D
:2007A8002500780EE2F58208E2F583C007C006120568AD82D006D007E4FCFBFAE5264204BD
:2007C800E5274203E52842028E828F83EDF0ECA3F0EBA3F0EAA3F0D0050207438D8222AFF5
:2007E80083E582781AF2EF08F2781AE2F58208E2F5837818E2F008E2A3F0781AE2F582087B
:20080800E2F583120568AD82BD0102800475820022781AE22402F58208E23400F58374FF51
:20082800F0A3F0A3F0A3F0781AE22406F58208E23400F583E4F0A3F0A3F0A3F0781CF278D1
:200848001AE22406FB08E23400FC8B828C83E0FAA3E0FDA3E0FEA3E08E2E8D2D8A2C752B0F
:2008680000781AE2F58208E2F583C004C003120568AF82D003D004E4FEFDFAE52C4206E52E
:200888002D4205E52E42028B828C83EFF0EEA3F0EDA3F0EAA3F0781CE22401F2781CE2B455
:2008A8000500409B7816E2FE08E2FF8E048F057A007B00C006C007EA2AFEEB33FFEE2CF513
:2008C80082EF3DF583E4F07404A3F00ABA00010B8A068B07C3EE94F3EF9400D007D0064071
:2008E800D274E62EFC74013FFD7A007B00C006C007EA2AFEEB33FFEE2CF582EF3DF583E41F
:20090800F07404A3F00ABA00010B8A068B07C3EE9451EF9400D007D00640D274882EFC7470
:20092800023FFD74202EFE74033FFF7A007B00EA2CF582EB3DF583E4F0EA2EF582EB3FF558
:2009480083E4F00ABA00010BC006C0078A068B07C3EE9498EF9400D007D00640D2758201A2
:2009680022AF83E582781FF2EF08F2781DE2FC08E2FD74882CFA74023DFB74202CF52F74C0
:20098800033DF5307F00C004C005EF2AFDE43BFEEF252FF582E43530F583E08D828E83F044
:2009A8000FBF9800D005D00440DC74E62CF53174013DF5327821E4F27821E2B4010040227E
:2009C800C004C0057821E2FD7E001DBDFF011EED252FF582EE3530F583E0F533D005D00464
:2009E80080037533007822E533F27821E2B40200401B7821E27F0024FEFEEF34FFFFEE2546
:200A08002FF582EF3530F583E0F5338003753300AF337821E2B40100401CC0077821E2FE7B
:200A28007F001EBEFF011FEE2AF582EF3BF583E0F533D0078003753300C0077823E533F28D
:200A48007821E22AF582E43BF5837824E0F27821E2F53475350074012534FEE43535FFC343
:200A6800EE9498EF64809480D007501AC00774012534FEE43535FFEE2AF582EF3BF583E03B
:200A8800F534D0078003753400C002C003AE347822E275F003A42F75F003A4FF7823E22F4D
:200AA80075F003A4FF7824E278252FF27534007825E275F003A4FFABF07A00EE2FFFEA3B5E
:200AC800FBEF2FFFEB33FBEF2CFFEB3DFB780CEFF2EB08F2781FE2F58208E2F583C005C07F
:200AE80004C003C00212058AE582D002D003D004D005D003D002603B7825E225E02531FFF6
:200B0800E43532FE780CEFF2EE08F2781FE2F58208E2F583C005C004C003C00212058AE551
:200B280082D002D003D004D00560047F0280027F018F347821E2252FF582E43530F583E547
:140B480034F07821E22401F27821E2B4980050030209C022DC
:200B5C00AF82C2815386FD8FC1E58630E1FBE58620E0FBD28122AF82C2928F82120B5CD2AC
:200B7C009222020B5CAF83E5827829F2EF08F21204D3782BC0E0E582F2E58308F2E5F00863
:200B9C00F2D0E008F220934F1204D3AC82AD83AEF0FF782BD3E29CF4B3F50CB308E29DF4ED
:200BBC00B3F50DB308E29EF4B3F50EB308E29FF4F50F7829E2FA08E2FB7E007F00C3EA95AA
:200BDC000CEB950DEE950EEF950F50B9782674FFF208F2758200221204D3AC82AD83AEF038
:200BFC00FF782BD3E29CF4B3FCB308E29DF4B3FDB308E29EF4B3FEB308E29FF4FFC374FE21
:200C1C009C74FF9DE49EE49F50067AFE7BFF80048C028D037826EAF2EB08F2900014120404
:200C3C00F4758201225386BF53F3D7D280C281C283C285C292C2A043FD2B43FE0443FF010B
:200C5C0053FEF743F60822120C419000C81204F4C2809000641204F453F1FE75860075C555
:200C7C003175C20043864043F328D281D292D2A09000141204F4C2A09000141204F4D2A030
:200C9C009000141204F4901388120B81E582700475820122758206120B72758217120B7E97
:200CBC00758217120B7E758217120B7E7828A293E433F2758204120B72901388120B81E5B0
:200CDC0082700475820122758200120B7275820F120B7E75820D120B7E758261120B7275C6
:200CFC008298120B7E758201120B7E758228120B7E758250120B72758277120B7E75820000
:200D1C0022758210120B727E007F008E8274502FF583E493F582C007C006120B7ED006D0CB
:200D3C00070EBE00010F8E048F05C3EC94F8ED941540D8758213120B727E007F008E82748B
:200D5C00662FF583E493F582C007C006120B7ED006D0070EBE00010F8E048F05C3EC94F86A
:200D7C00ED941540D822758212120B729000641204F490EA60120B81E58270047582022283
:200D9C00758200227F00758202C007120B72901388120B81E582D00770027F03758207C097
:180DBC0007120B727582A5120B7E90000A1204F4120C41D0078F822245
:200DD400AF837D008D037CF4ED902979938B828C83F00DBD2F0040ECEFC313FE53067E9043
:200DF400F402EEF0782FE208E290F40FF0782FE290F410F0A2AFE433FFC2AFAEC743C702AF
:200E1400C007C00612F400D006D0078EC7EF24FF92AF22AE82AF838E108F117831E2FC0885
:200E3400E2FD7833E2FA08E2FB8A068B071ABAFF011BEE4F601D851082851183E493FFA33F
:140E54008582108583118C828D83EFF0A3AC82AD8380D622E4
:2029790075AD0075AC0075AE01E5AE20E7FB9000007F027E0075AE027D02E0A3F5AFDDFA11
:0F299900E5AE20E6FBDEF1DFEFE5AE20E7FB2247
:200E68007835E4F27835E2B4060050097835E2783504F280EF22C28443FD102253FDEF2269
:200E8800C28643FD402253FDBF7ED07F072086091EBEFF011FEE4F70F42253F3AF538FAF8A
:200EA800120E84020E8EC284C28643FD5022120E84120E8E120E68120E7E120E68120E8800
:200EC800020E68120E7E120E68120E8E120E68120E84020E68AF827E00EF30E70DC007C0D1
:200EE80006120E84D006D007800BC007C006120E7ED006D007EF2FFFC007C006120E6812EC
:200F08000E8E120E68120E88D006D0070EBE080040C7120E84120E68120E8E120E6830845F
:200F2800047F0080027F01C007120E88120E68D0078F8222AF827E00C007C006120E84D073
:200F480006D0077D08C007C006C005120E68120E8E120E68D005D006D007EE2EFC308404C5
:200F68007B0180027B00EB4CFEC007C006C005120E88D005D006D007DDCBEF6009C0061267
:200F88000E7ED0068007C006120E84D006C006120E68120E8E120E68120E88120E84120E30
:060FA80068D0068E8222D3
:200FAE00AE82AF837836E2FDE46206ED62077D08EF30E70EEE2EFBEF33FC630321630410C6
:200FCE008006EE2EFBEF33FC8B068C07DDE28E828F8322AE82AF838E04EFC4CCC4540F6C1B
:200FEE00CC540FCC6CCCEC04FD90FD68E0FCEDB50402802D78507420F274FC08F28D82C016
:20100E0007C006C005122616E582D005D006D007700A90FD6874FFF07582002290FD68ED2C
:20102E00F053060F7F0074202EF58274FC3FF583E0F58222AE82AF83C007C006120FE1AD54
:20104E0082D006D0070EBE00010F8E828F83C005120FE1AF82D0058F06E4FC4DF582EE4C15
:20106E00F5832290FD6A745AF07F0090FD6AE023FE74502FF582E434FCF583E090FD6A6E61
:20108E00F00FBF0E0040E490FD6AE0F5822290FC50E0FFBF4D1B90FC51E0FFBF521390FC94
:2010AE005EE0FFC007121071AE82D007EFB50601227F0074502FFDE434FCFE8F827430245D
:2010CE0000F583E4938D828E83F00FBF100040E390FC50E0FFBF4D0A90FC51E0FFBF520262
:2010EE00801E7F0074502FF582E434FCF583E4F00FBF100040EE90FC50744DF0A37452F009
:20110E00121071AF8290FC5EEFF02290FC50744DF0A37452F0121071AF8290FC5EEFF0900F
:20112E00FC5CE0FFBF02028006BF0302800122903000E493FFBF4D37903001E493FFBF52F9
:20114E002E903002E493FF90FC52E0FEEFB5061F903003E493FF90FC53E0FEEFB506109056
:20116E00300CE493FF90FC5CE0FEEFB50601227E007F008E0474F02FFDC3EE9410EF940025
:20118E00500E74502EF58274FC3FF583E0FB80027BFF8C828D83EBF00EBE00010F8E048F86
:2011AE000574FC2D50CD782FE4F274F008F2903000020DD478507430F274FC08F275820025
:2011CE00122616E5827003F5822290FC3CE0FFBFE12690FC3DE0FFBF101E90FC3EE0FFBFD6
:2011EE006D1690FC3FE0701090FC3AE0700A90FC3BE070047582012290FC3074AAF090FC88
:20120E003AE4F0A3F0A374E1F0A37410F0A3746DF0A3E4F078527430F274FC08F275820074
:20122E00122687E5827003F582227F0074302FF582E434FCF583E4F00FBF100040EE90FCAD
:20124E00307403F0A3E4F0A374FEF078527430F274FC08F275820102268790FC60744DF05F
:20126E00A37453F0A37401F0A37413F090FC5CE090FC64F090FC5DE090FC65F090FC52E0D4
:20128E0090FC66F090FC53E090FC67F090FC55E090FC68F090FC54E090FC69F0A37440F02B
:2012AE00A37403F0A3E4F0A37418F0A37401F0A3E4F0227E307FFCC007C006121268D006C7
:2012CE00D0077D007C008D03EBC454F0FB8C02EA2BFBBB0A005008EB9029A893FA8024BBBF
:2012EE001A005016C0058B05ED24F62460F582E434FCF583E0FAD0058009BB1A047AFE8074
:20130E00027A008C0374102B2EF582E43FF583EAF00CBC100040AF8D04EC04F5827850EE76
:20132E00F2EF08F2C007C006C005122616E582D005D006D00790FD6BF07C0090FD6BE0609F
:20134E002BBC10005026EC2EF582E43FF583E0FB8C0274102A2EF582E43FF583E0FAEBB515
:20136E000202800590FD6BE4F00C80CF90FD6BE0701F8D04EC04F582785274102EF2E43FBF
:20138E0008F2C007C006C005122687D005D006D0070DBD020050030212D290FD6874FFF055
:2013AE0022AD82AC83783BE4F274F008F290FD6C74FFF0A3F07839E2F5F008E245F07003BF
:2013CE000214D08D028C037E0074FC5BFF90FD6EEEF0EFA3F0530303783B7931E2F308E2E3
:2013EE0009F37833E4F2740408F28E828F83C005C004C003C002120E27D002D003D004D030
:20140E00057837E2FE08E2FF8D368C377839E2F53808E2F5398A048B0574FC2D406CE5385F
:20142E00453960668E828F830EBE00010FC007C006C003C002120FE185823A90FD6CE0FC32
:20144E00A3E0FD7836E53AF28C828D83120FAEE5828583F0D002D003D006D00790FD6CF0B8
:20146E00E5F0A3F0783BE22AF58208E23BF583E53AF00536E4B5360205370ABA00010B15E7
:20148E003874FFB538021539808B7837EEF2EF08F2AD36AC377839E538F2E53908F290FDA8
:2014AE006EE0FEA3E0FF783B792FE2F308E209F38E828F83C005C004120DD4D004D00502F1
:2014CE0013C390FD6CE0FEA3E08E82F58322AE82AF8390FD7074FFF0A3F07C007D348E0212
:2014EE008F031EBEFF011FEA4B603C90FD70E0FAA3E0FB8C828D837836E493F2A3AC82AD78
:20150E00838A828B83C007C006C005C004120FAEE5828583F0D004D005D006D00790FD7089
:20152E00F0E5F0A3F080B790FD70E0FEA3E08E82F58322AE82AD83AFF08E028D038F048ACA
:20154E00828B838CF0122959F53BA3122959F53CE53B453C70012274062EF53DE43DF53EE3
:20156E008F3F74022EF540E43DF5418F42E4F543F544C002C003C004854082854183854299
:20158E00F0122959FBA3122959FCC3E5439BE5449CD004D003D0025043C002C003C0048566
:2015AE003D82853E83853FF0122959FBA3122959FCE5432BFBE5443CFCE543253BF582E50F
:2015CE0044353CF583E4938B828C83F00543E4B543020544D004D003D002809674042EFEAB
:2015EE00E43DFD8E828D838FF0122959FEA3122959FF853D40853E41853F42C002C003C007
:20160E00048E048F05C3ED9404D004D003D002503CC002C003C0048540828541838542F0B5
:20162E00122959FCA3122959FDEE2CFCEF3DFDEE253BF582EF353CF583E4938C828D83F077
:20164E000EBE00010FD004D003D00280AE8A828B838CF0122959FEA3122959FF853D8285D2
:20166E003E83853FF0782F122959F2A312295908F28E828F83C004C003C002120DD4D00259
:20168E00D003D0048A828B838CF0E41227DBA30227DBAFF0AE83E5827840F2EE08F2EF08A0
:2016AE00F2783DE2FB08E2FC7A0074FC5CFF5304037840E2F54508E2F54608E2F54785452A
:2016CE00828546838547F0122959FDA3122959FEEAB50506EFB50602804F7840E2F582086C
:2016EE00E2F58308E2F5F0C007C004C003C002121541D002D003D004D00785458285468351
:20170E008547F0EA1227DBA3EF1227DB7840E22402FD08E23400FE08E2FF8D828E838FF0FA
:20172E00EB1227DBA3EC1227DB7840E22406FD08E23400FE08E2FF8D828E838FF012295900
:20174E00FDA3122959FEEB2DF582EC3EF583783FE2F07840E22404FD08E23400FE08E2FFCB
:20176E000BBB00010C8D828E838FF0EB1227DBA3EC0227DB7E107FFC78437440F274F4087D
:20178E00F278167440F274F408F27818E4F2743408F290FC10C007C0061207E7E582D00645
:2017AE00D0077003F5822290FD72E4F0A3F090FD78F074F0A3F090FD7AE4F0A3F090FD806B
:2017CE007410F074F8A3F0E4F54FF5507843791DE2F308E209F38E828F83C007C006120945
:2017EE006978457460F274F708F2785AE54FF2E55008F29000131227F6E5828583F0D0065C
:20180E00D00790FD82F0E5F0A3F075480090FD84E4F090FD85F0F5497845E2F54A08E2F5DD
:20182E004BC006C007854A82854B83E0F54CA385824A85834B90FD84E025E0F54D7401B554
:20184E004C06D007D0068009D007D006754E018003754E00C006C007E54E454DF54E90FD19
:20186E0084F090FD85E025E0F54D7402B54C06D007D0068009D007D006754C018003754C47
:20188E0000E54C424D90FD85E54DF0054974F82549508EC006C0077845E54AF2E54B08F2AB
:2018AE0090FD82E0FEA3E0FF8E0474502FFDAB487A00EB2CFCEA3DFD783DECF2ED08F27893
:2018CE003FE54EF290FD7275F000C007C006C003C0021216A0D002D003D006D00774662FFD
:2018EE00FFEB2EFBEA3FFA783DEBF2EA08F2783FE54DF290FD7A75F000C007C0061216A092
:20190E00D006D0070548C3E5489413D007D006500302181B054FE4B54F020550AA4FAB506C
:20192E00C3EA9428EB940150030217DA90FD7275F00012154190FD7A75F0001215417582D3
:20194E000122AE82AF837847E2F55108E2F552C3E551940FE5529400404C8E828F83C00700
:20196E00C006120FE1AB82D006D007BB4D3874012EFAE43FFB8A828B83C007C006120FE113
:20198E00AB82D006D007BB4B1D74022EFAE43FFB8A828B83C007C006120FE1AB82D006D004
:2019AE0007BB010280047582022274032EFAE43FFB8A828B83C007C006121042858253850E
:2019CE008354D006D00774052EFCE43FFD8C828D83C007C006120FE1AD82D006D0077406AF
:2019EE002EFBE43FFC8B828C83C007C006C005120FE1858265D005D006D00774072EFAE4AC
:201A0E003FFB8A828B83C007C006C005121042858255858356D005D006D00774092EFAE4E9
:201A2E003FFB8A828B83C007C006C005121042858257858358D005D006D007740B2EFAE4C3
:201A4E003FFB8A828B83C007C006C00512104285825985835AD005D006D007740D2EFAE49D
:201A6E003FFB8A828B83C007C006C005121042858266858367D005D006D007C006C007E57E
:201A8E005124F1FEE55234FFFF8E518F5285555B85565CC3E4955B7418955CD007D006502E
:201AAE000475820522E5657003021B80C3ED95654003021B80E56645677003021B80856620
:201ACE005D85675EC37440955D7403955E5003021B80C00585665F85676075610075620086
:201AEE00856563756400E56324FFFCE56434FFFD785CECF2ED08F2ED3395E008F208F2852B
:201B0E005F828560838561F0E4C007C006122816AA82AB83ACF0FDD006D00785556885561A
:201B2E0069756A00756B00C3EA9568EB9569EC956AED956BD005503AC005785CE565F2E4EC
:201B4E0008F208F208F2855F828560838561F0C007C006122816AA82AB83ACF0FDD006D06F
:201B6E0007C3EA9568EB9569EC956AED956BD0055004758202228D037C000BBB00010CC3FF
:201B8E00EB9563EC64808564F063F08095F05006AB5DAC5E8033C005E56324FFFAE5643491
:201BAE00FFFD785AEAF2ED08F2855D82855E83C007C0061227F6AA82AD83D006D007E55BB7
:201BCE00C39AFBE55C9DFCD005EBB55106ECB55202800475820222C00590FC52E0FCAA53E9
:201BEE00E4FBFDECB50206EDB503028004D005802390FC53E0FCAA54E4FBFDECB50206ED84
:201C0E00B503028004D005800BD00590FC54E0B565028004C2008002D200A200E433FCED2B
:201C2E00700FEC600C90FC5CE0FBBB020475820022ED7046EC600A90FC5CE0FBBB01028028
:201C4E003990FC5C7401F0AA5390FC52EAF0AB54A3EBF0A3E565F0A3E4F0AA55A3EAF0AB43
:201C6E0056A3EBF0AA57A3EAF0AB58A3EBF0AA66A3EAF0AB67A3EBF08011EC600A90FC5C97
:201C8E00E0FCBC010280047582042290FC55E0FCC3ED9C50047582002290FC55E0C39D5013
:201CAE000475820422785AEDF2E408F2856682856783C007C006C0051227F6AB82AC83D0DD
:201CCE0005D006D00774342CFC8B828C83740F2EFEE43FFF7837EEF2EF08F27839E551F236
:201CEE00E55208F2C0051213AFAE82AF83D005EEB55906EFB55A028004758203220D90FC9A
:201D0E0055EDF090FC5C7401F090FD69F075820022AFF0AE83E5827849F2EE08F2EF08F27C
:201D2E0090FD86E4F0A3F090FD86E0FBA3E0FC8B6C8C6DC3E56C9468E56D940340049000F1
:201D4E0000228B6E8C6F90FD8674012BF0E43CA3F0856E82856F83120FE1E582FC60C8BCD4
:201D6E00FE049000002290FD86E0FAA3E0FB90FD8674012AF0E43BA3F08A828B83C00412F2
:201D8E000FE1AB82D0047A0090FD88EBF0EAA3F0BBFF5F90FD86E0FAA3E0FB8A828B83C0FF
:201DAE0004C003C002120FE1858270D002D00385707175720085717475730074012AFEE44E
:201DCE003BFF8E828F83C003C002120FE1AF82D002D003D0047E0090FD88EF4573F0EE450B
:201DEE0074A3F074022AFAE43BFB90FD86EAF0EBA3F0BC0302801D90FD86E0FBA3E0FC9054
:201E0E00FD88E0FAA3E0FF90FD86EA2BF0EF3CA3F0021D3590FD86E0FBA3E0FC90FD88E047
:201E2E00FAA3E0FFEA2BF573EF3CF574AE73AF74C374689E74039F500490000022AB73ACA0
:201E4E007490FD86E0F573A3E0F57485737185747274032571FAE43572FFC3EB9AEC9F5031
:201E6E00030220F2857382857483C004C003120FE1AA8274012571FEE43572FF8E828F83DD
:201E8E00C002120FE1858273D002D003D004EA30E43A74022571FEE43572FF8E828F83C0CF
:201EAE0004C003C002120FE1AF82D002D003D00490FD8CEFF0E4A3F074032571FEE43572DA
:201ECE00FF90FD8AEEF0EFA3F0021F7374022571FEE43572FF8E828F83C004C003C00212D9
:201EEE000FE1E582D002D003D004702074032571FEE43572FF8E828F83C004C003C0021262
:201F0E000FE1E582D002D003D00460049000002274042571FEE43572FF8E828F83C004C091
:201F2E0003C002120FE1AF827E008F6F8E6E74052571FDE43572FF8D828F83120FE1AF8239
:201F4E00D002D003D0047E0090FD8CEF456EF0EE456FA3F074062571FEE43572FF90FD8AED
:201F6E00EEF0EFA3F090FD8EE4F0EA30E32C90FD8AE0FEA3E0FF90FD8A74012EF0E43FA3F4
:201F8E00F08E828F83C004C003C002120FE1E582D002D003D00490FD8EF08A07530707BF3A
:201FAE00020280030220B47405B5730280030220B490FD8AE0F571A3E0F572857182857204
:201FCE0083C004C003C002120FE1AF82D002D003D004BF780280030220B474012571FEE4FC
:201FEE003572FF8E828F83C004C003C002120FE1AF82D002D003D004BF2F0280030220B4CD
:20200E0074022571FEE43572FF8E828F83C004C003C002120FE1AF82D002D003D004BF6DDB
:20202E000280030220B474032571FEE43572FF8E828F83C004C003C002120FE1AF82D00232
:20204E00D003D004BF705F74042571FEE43572FF8E828F83C004C003C002120FE1AF82D039
:20206E0002D003D004BF6B3E90FD8CE0FFA3E0FE7849E2F58208E2F58308E2F5F0EF122755
:20208E00DBA3EE1227DBAF737E00EF2571F571EE3572F57290FD8EE07F002571FDEF357288
:2020AE00FF8D828F8322C003C004AE737F0090FD8AE0FCA3E0FDEE2CFCEF3DFD90FD8EE0FC
:2020CE007E002CFCEE3DFD90FD8CE0FEA3E0FF90FD86EE2CF0EF3DA3F0EAD004D00320E638
:2020EE0003021E4F9000002290FD6874FFF090FD69E4F012109C1211C2E582700A90FC700C
:20210E007401F07582032290FD8F75F000121D1FAE82AF838E0590FC71EDF08F05A3EDF07E
:20212E0090FD8FE090FC73F090FD8FE0A3E090FC74F0EE4F70071212C17582002290FD8F69
:20214E00E0FCA3E0FD7847ECF2ED08F28E828F83121950AF8290FC5DEFF0BF040F90FC5C41
:20216E00E0FEBE0102800590FC55E4F0EF706E90FC55E0FF1582E0FEEFB5066190FC5CE0A3
:20218E00FFBF015990FC56E0FFA3E0FDE4FC4FF582ED4CF5831214DCAE82AF8390FC58E059
:2021AE00FDA3E0FBE4FCFAED4204EA4203EEB50406EFB50302800890FC5D7406F0800D128A
:2021CE001782E582700690FC5D7407F090FC5DE060047F0380027F0290FC5CEFF012111972
:2021EE001212C190FC5DE090FC70F090FC5DE060047582032290FD69E07003F5822290FC80
:20220E005CE0FFBF02047F0280027F018F822290FD91E4F0FEFF7854744CF2E408F27460DB
:20222E0008F2758206C007C0061226E3E582D006D007700475820122784CE230E00790FD05
:20224E0091E4F0801290FD91E02401F0E0FDBD0500400475820122900014C007C006120422
:20226E00F4D006D0070EBE00010F8E048F05C3EC94B8ED940B409F7582002290FD92E4F03B
:20228E001225FF7854744DF2E408F2746008F27582061226E3E582604A784DE230E0089057
:2022AE00FD927401F0803C78507430F274FC08F2758201122616E58260297F00BF0C0050C8
:2022CE001974302FF582E434FCF583E0FEEF9029A893FDEEB505030F80E290FD92BF0C003D
:2022EE00E433F01227B112260D90FD92E0F5822290FD93E4F0A3F0FEFF30912190FD93E09C
:20230E002401F0A3E03400F090FD93E0FCA3E0FDC3EC940AED9400400B7582012290FD9324
:20232E00E4F0A3F090000AC007C0061204F4D006D0070EBE00010F8E048F05C3EC9470EDA8
:20234E00941740B575820022AF827E0074702EF582E434FCF583E4F00EBE100040EEBF0154
:20236E000FC0071222FEE582D007700475820422C0071225FFD007BF020E12221DE58270AD
:20238E000712260D758204221220F6AF82C0071227B112260DD0078F82221225FF90FD6842
:2023AE0074FFF012109C1211C2E58260031212C11227B102260DAE82AF837C307DFC8E0224
:2023CE008F03C374689A74039B50047E687F03C007C006C005C0041225FF1211C2D004D081
:2023EE0005D006D00790FD95E4F0A3F090FD95E0FAA3E0FBC3EA9EEB9F40030224C97B0098
:20240E00EB2CF575E43DF5768B7775780090FD95E0F579A3E0F57AC004C005E5772579FAD3
:20242E00E578357AFDC3EA9EED9FD005D0045021C004C005E5772579FAE578357AFD74108A
:20244E002AF58274F83DF583E0F579D005D0048003757900AA79857582857683EAF00BBB87
:20246E001000409CC006C00790FD95E0FAA3E0FB8A06C4CEC4540F6ECE540FCE6ECEFFEE7C
:20248E0004F5827852ECF2ED08F2C007C006C005C004C003C002122687D002D003D004D081
:2024AE0005D006D00774102AFAE43BFB90FD95EAF0EBA3F0D007D0060223FA1227B1122632
:0724CE000D75820002235688
:0C29A8000318D20510782F6D70734D538A
:2024D500AF82784EE22410FDE434F8FE7850EDF2EE08F28F82122616E582700790F810E08B
:2024F50054FEF0227F00EF2410F582E434F8F58374EEF00FBFA00040ED90F810E4F0122631
:202515000D9000141204F41227C0AF8290F811EFF0E060047F0180027F0290F814EFF012F5
:2025350025FF9000141204F41227C0AF8290F812EFF090F8107401F0784EC4F2758200128F
:2025550024D5784E7420F27582381224D5784E7430F27582391224D5784E7440F275823AB3
:202575001224D57F008F06EE04F5828F06EEC454F0FE784E74502EF2C0071224D5D0070FD3
:20259500BF040040E090F813E4F0FF7854744FF2E408F2746008F28F82C0071226E3E5824E
:2025B500D007601D8F0674082E2410F582E434F8F583784FE2F090F813E0FE0E90F813EE97
:2025D500F00FBF080040C4785074902410F2E434F808F2758240122616E582600790F81035
:0A25F500E04402F01227B102260DA7
:2025FF00D29043FE01120EA29000050204F4120EAEC29043FE0122AF82C007120EB675827E
:20261F00AA120EDDE582D00760098F82120EDDE5827007120ECB75820022120ECB120EB69C
:20263F007582AB120EDDE5827007120ECB758200227F007850E22FFD08E23400FEBF0F00BB
:20265F00E433F582C007C006C005120F3CAC82D005D006D0078D828E83ECF00FBF10004054
:20267F00D2120ECB75820122AF82C007120EB67582AA120EDDE582D00760098F82120EDD43
:20269F00E5827004C2018002D201A201E433FF7E00EF6020BE1000501B7852E22EF58208F0
:2026BF00E23400F583E0F582C006120EDDAF82D0060E80DDC007120ECB9000061204F4D0BF
:2026DF00078F8222AF82C007120EB67582AA120EDDE582D00760177582FEC007120EDDE5E2
:2026FF0082D00760098F82120EDDE5827007120ECB75820022120ECB120EB67582AB120E86
:20271F00DDE5827007120ECB758200227854E2FD08E2FE08E2FF758200C007C006C0051204
:20273F000F3CAC82D005D006D0078D828E838FF0EC1227DB120ECB75820122AF82C00712D1
:20275F000EB67582AA120EDDE582D007602F7582FEC007120EDDE582D00760218F82120E82
:20277F00DDE58260187857E2F582120EDDE582600C7858E2F582120EDDE5827004C2028041
:20279F0002D202A202E433FFC007120ECBD0078F822278577440F27858E4F275820602278D
:1C27BF005AC29143FE029000011204F453FEFD9000031204F4A291E433F58222A5
:06010500E478FFF6D8FDCE
:2000E3007900E94400601B7A009029B478977593FDE493F2A308B800020593D9F4DAF2756D
:0201030093FF68
:1B27DB0020F71130F6138883A88220F509F6A8837583002280FEF280F5F022FD
:2027F600AA83AB828BF090FD5AE0A4F8A9F08AF0E0A429F98BF0A3E0A429F5838882222241
:20281600AF82AE83ADF0FC7860EFF2EE08F2ED08F2EC08F27860E2FF785EE28FF0A4FFADF9
:20283600F07866EFF208EDF27860E2FF785CE28FF0A4FFADF07864EFF208EDF27867E2FF5A
:202856007863E2FE785CE28EF0A42FFF7867F27862E2FE785DE28EF0A42F7867F27866E27D
:20287600FE08E2FF7862E2FD785CE28DF0A4ABF02EFEEB3FFF7866EEF208EFF27861E2FD7C
:20289600785DE28DF0A4ABF02EFEEB3FFF7866EEF208EFF27861E2FF785EE28FF0A4786343
:2028B600F27861E2FF785CE28FF0A4FFADF07861EFF208EDF27860E2FF785FE28FF0A47833
:2028D6005FF27860E2FF785DE28FF0A4FFADF0785DEFF208EDF2785CE4F27860F27864E293
:2028F600F51008E2F51108E2F51208E2F5137860E2FA08E2FB08E2FE08E2FFEA2510F5105C
:20291600EB3511F511EE3512F512EF3513F5137864E510F208E511F208E512F208E513F259
:20293600785CE2FC08E2FD08E2FE08E2FFEC2510FCED3511FDEE3512FEEF35138C828D8342
:032956008EF022DE
:20010B007868E84400600A79007593FDE4F309D8FC782FE84400600C790190FD68E4F0A307
:04012B00D8FCD9FA29
:0D00D60075817A122975E58260030200D160
:1C29590020F71430F6148883A88220F507E6A88375830022E280F7E49322E0228D
:042975007582002245
:00000001FF
