:040000000200D632F2
:01000B0032C2
:0100130032BA
:01001B0032B2
:0100230032AA
:03002B000201EEE1
:01003300329A
:01003B003292
:01004300328A
:01004B003282
:01005300327A
:01005B003272
:01006300326A
:01006B003262
:01007300325A
:03007B000201E897
:01008300324A
:03008B000204A0CC
:200090000000E2FBEAF2802C0000E0FBEAF08024E6B50202EBF62200E2B50202EBF2220056
:2000B000E0B50202EBF02230F6E0A88220F5D3EAC6F582228B822230F6E6A88220F5D98066
:0100D000CF60
:030139000200D1F0
:0500D10012037080FE27
:20013C00AF8290F804EFF02290F800E0FFBF4D0A90F801E0FFBF500280047582002290F8CA
:20015C0002E0FFBF480C90F803E0FFBF44047582012290F802E0FFBF4E0C90F803E0FFBF59
:20017C0052047582022290F802E0FFBF4E0C90F803E0FFBF46047582032290F802E0FFBFB9
:20019C004E0C90F803E0FFBF57047582042275820022C2A1C2A243FF0622C290C294C295FF
:2001BC00C296C29743FEF1C284C28643FD50C29343FE080201AE74FC55BE4403F5BE000056
:2001DC0000E5BE540360044387010022758A00C2EB3275A110C2C732AFA5EFB5A50280FAE0
:2001FC00221201B6C29143FE021204D043C70275A110C2C7D2ADD2AF75A2051201F412018B
:20021C00F475A40875A37774FC55BE4402F5BE000000E5BE5403600443870100C2AD53C7F0
:20023C00FD0204C71201B653FEFD438C02758A00C2EB438D02439A101204D043C702D2AF12
:20025C003091051201D280F8538DFD539AEF53C7FD0204C790F806E4F090F807F0120C675C
:20027C00AF8290F80B7828E2F07826E290F80CF07827E290F80DF0758230C00712013CD015
:20029C0007EF6003020320120D2175824012013C1204D77800C0E0E582F2E58308F2E5F069
:2002BC0008F2D0E008F275825012013C120D86AF82C0071204D7AA82AC83ADF0FED0077819
:2002DC0000D3E29AF4B3FBB308E29CF4B3FCB308E29DF4B3FDB308E29EF4FEC374FF9B74E5
:2002FC00FF9CE49DE49E50047BFF7CFF8B0290F806EAF08C0390F807EBF0758260C00712DD
:20031C00013CD00790F805EFF0120DA4AF8290F805E0700590F805EFF01204D7AC82AD83B4
:20033C00AEF0FFC374FF9C74FF9DE49EE49F50047CFF7DFF8C0390F808EBF08D0490F809B6
:20035C00ECF075827012013C90F805E0F5822212013C80FE120144AF8290F80CE0FE90F89A
:20037C000DE0FC7D008E037E00ED4BFDEC4EFE90F800E4F090F801F090F802F090F803F0B5
:20039C0090F80EE0FC0C90F80EECF090F80FE5BEF0EF6003BF020FC007C006C0051201AEF2
:2003BC00D005D006D007758210C007C006C00512013C90F805E4F090F80A7414F01204C7AF
:2003DC00D005D006D007BF0315C007C006C00512254B75829012036BD005D006D007BF0488
:2003FC002A8D828E83C007122416AE82D007BE020BC007C006120270D006D00790F80BEE73
:20041C00F07582A0C00712036BD007C007120270D007EF600675828012036B1223FA12016B
:20043C00B6122812AF827E00EF6007BE030040027F00EF6015C007C00612024075820112C8
:20045C0023A8AD82D006D0078022C007C0061201FD1222DBE582D006D00760CC758202C092
:20047C0007C0061223A8AD82D006D007BD04030E80027E00BD02B1C007C006120270D006B1
:04049C00D00780A461
:104FF0004D4F4E4F50494E4B01040198012800007F
:0A012F007804E4F208F208F208F286
:2004A000C0E0C000C0D075D0007804E22402F208E23400F208E23400F208E23400F2C2ECB3
:2004C000D0D0D000D0E03275C90F439A20D2AF22539ADF75C90422A2AFE433FFC2AF780459
:2004E000E2FB08E2FC08E2FD08E2FEEF24FF92AF8B828C838DF0EE22AF82AE83C007C0067F
:200500001204D77808C0E0E582F2E58308F2E5F008F2D0E008F2D006D007C007C00612044A
:20052000D785820885830985F00AF50BD006D0077808D3E29508F4B3F508B308E29509F4F3
:20054000B3F509B308E2950AF4B3F50AB308E2950BF4F50B8F028E037C007D00C3E5089A72
:0C056000E5099BE50A9CE50B9D40AF22DD
:20056C00AE82AF83E0FCA3E0FD74012CFAE43DFB8E828F83EAF0EBA3F08C828D83E493F5F6
:20058C008222AF83E582780EF2EF08F2780CE2F52908E2F52A852982852A837810E0F2A3C5
:2005AC00E008F2780EE22402F52108E23400F522852182852283E0A3E0FBA3E0FEA3E0FFC9
:2005CC008B02EEC423CAC423541F6ACA541FCA6ACAFBEFC42354E04BFBEFC423541FFE7FD3
:2005EC00007810795CE2F308E209F3E409F309F38A828B838EF0EF1228687812C0E0E58241
:20060C00F2E58308F2E5F008F2D0E008F2780EE22406F52308E23400F524852382852483CA
:20062C00E0F525A3E0F526A3E0F527A3E0F5287812C3E2F5F0E52595F008E2F5F0E52695C5
:20064C00F008E2F5F0E52795F008E2F5F0E52895F0504D8521828522837812E2F008E2A305
:20066C00F008E2A3F008E2A3F07810D3E29400F4B3FCB308E29408F4C403CCC40354076CC2
:20068C00CC5407CC6CCCFD7810E22CFC08E23DFD852982852A83ECF0EDA3F07D00020747E5
:2006AC007812D3E29525F4B3FBB308E29526F4B3FCB308E29527F4B3FEB308E29528F4FF4D
:2006CC00852382852483EBF0ECA3F0EEA3F0EFA3F0852182852283E0FBA3E0FCA3E0FEA38B
:2006EC00E0FF7812D3E29BF4B3FBB308E29CF4B3FCB308E29EF4B3FEB308E29FF4FF852102
:20070C0082852283EBF0ECA3F0EEA3F0EFA3F07810E2FE08E2C403CEC40354076ECE540724
:20072C00CE6ECEFF7810E2C39EFE08E29FFF852982852A83EEF0EFA3F07D01780EE2240285
:20074C00FE08E23400FF8E828F83E0A3E0A3E0A3E0C3940140030207E8C0058E828F83E094
:20076C00FAA3E0FBA3E0FCA3E08C058B048A037A008E828F83EAF0EBA3F0ECA3F0EDA3F053
:20078C00780EE22406FE08E23400FF8E828F83E0FAA3E0FBA3E0FCA3E08C288B278A267599
:2007AC002500780EE2F58208E2F583C007C00612056CAD82D006D007E4FCFBFAE5264204B5
:2007CC00E5274203E52842028E828F83EDF0ECA3F0EBA3F0EAA3F0D0050207478D8222AFED
:2007EC0083E582781AF2EF08F2781AE2F58208E2F5837818E2F008E2A3F0781AE2F5820877
:20080C00E2F58312056CAD82BD0102800475820022781AE22402F58208E23400F58374FF49
:20082C00F0A3F0A3F0A3F0781AE22406F58208E23400F583E4F0A3F0A3F0A3F0781CF278CD
:20084C001AE22406FB08E23400FC8B828C83E0FAA3E0FDA3E0FEA3E08E2E8D2D8A2C752B0B
:20086C0000781AE2F58208E2F583C004C00312056CAF82D003D004E4FEFDFAE52C4206E526
:20088C002D4205E52E42028B828C83EFF0EEA3F0EDA3F0EAA3F0781CE22401F2781CE2B451
:2008AC000500409B7816E2FE08E2FF8E048F057A007B00C006C007EA2AFEEB33FFEE2CF50F
:2008CC0082EF3DF583E4F07404A3F00ABA00010B8A068B07C3EE94F3EF9400D007D006406D
:2008EC00D274E62EFC74013FFD7A007B00C006C007EA2AFEEB33FFEE2CF582EF3DF583E41B
:20090C00F07404A3F00ABA00010B8A068B07C3EE9451EF9400D007D00640D274882EFC746C
:20092C00023FFD74202EFE74033FFF7A007B00EA2CF582EB3DF583E4F0EA2EF582EB3FF554
:20094C0083E4F00ABA00010BC006C0078A068B07C3EE9498EF9400D007D00640D27582019E
:20096C0022AF83E582781FF2EF08F2781DE2FC08E2FD74882CFA74023DFB74202CF52F74BC
:20098C00033DF5307F00C004C005EF2AFDE43BFEEF252FF582E43530F583E08D828E83F040
:2009AC000FBF9800D005D00440DC74E62CF53174013DF5327821E4F27821E2B4010040227A
:2009CC00C004C0057821E2FD7E001DBDFF011EED252FF582EE3530F583E0F533D005D00460
:2009EC0080037533007822E533F27821E2B40200401B7821E27F0024FEFEEF34FFFFEE2542
:200A0C002FF582EF3530F583E0F5338003753300AF337821E2B40100401CC0077821E2FE77
:200A2C007F001EBEFF011FEE2AF582EF3BF583E0F533D0078003753300C0077823E533F289
:200A4C007821E22AF582E43BF5837824E0F27821E2F53475350074012534FEE43535FFC33F
:200A6C00EE9498EF64809480D007501AC00774012534FEE43535FFEE2AF582EF3BF583E037
:200A8C00F534D0078003753400C002C003AE347822E275F003A42F75F003A4FF7823E22F49
:200AAC0075F003A4FF7824E278252FF27534007825E275F003A4FFABF07A00EE2FFFEA3B5A
:200ACC00FBEF2FFFEB33FBEF2CFFEB3DFB780CEFF2EB08F2781FE2F58208E2F583C005C07B
:200AEC0004C003C00212058EE582D002D003D004D005D003D002603B7825E225E02531FFEE
:200B0C00E43532FE780CEFF2EE08F2781FE2F58208E2F583C005C004C003C00212058EE549
:200B2C0082D002D003D004D00560047F0280027F018F347821E2252FF582E43530F583E543
:140B4C0034F07821E22401F27821E2B4980050030209C422D4
:200B6000AF82C2815386FD8FC1E58630E1FBE58620E0FBD28122AF82C2928F82120B60D2A4
:200B80009222020B60AF83E5827829F2EF08F21204D7782BC0E0E582F2E58308F2E5F00857
:200BA000F2D0E008F220934F1204D7AC82AD83AEF0FF782BD3E29CF4B3F50CB308E29DF4E5
:200BC000B3F50DB308E29EF4B3F50EB308E29FF4F50F7829E2FA08E2FB7E007F00C3EA95A6
:200BE0000CEB950DEE950EEF950F50B9782674FFF208F2758200221204D7AC82AD83AEF030
:200C0000FF782BD3E29CF4B3FCB308E29DF4B3FDB308E29EF4B3FEB308E29FF4FFC374FE1C
:200C20009C74FF9DE49EE49F50067AFE7BFF80048C028D037826EAF2EB08F2900014120400
:200C4000F8758201225386BF53F3D7D280C281C283C285C292C2A043FD2B43FE0443FF0103
:200C600053FEF743F60822120C459000C81204F8C2809000641204F853F1FE75860075C545
:200C80003175C20043864043F328D281D292D2A09000141204F8C2A09000141204F8D2A024
:200CA0009000141204F8901388120B85E582700475820122758206120B76758217120B8283
:200CC000758217120B82758217120B827828A293E433F2758204120B76901388120B85E59C
:200CE00082700475820122758200120B7675820F120B8275820D120B82758261120B7675B2
:200D00008298120B82758201120B82758228120B82758250120B76758277120B82758200E7
:200D200022758210120B767E007F008E8274502FF583E493F582C007C006120B82D006D0BF
:200D4000070EBE00010F8E048F05C3EC94F8ED941540D8758213120B767E007F008E827483
:200D6000662FF583E493F582C007C006120B82D006D0070EBE00010F8E048F05C3EC94F862
:200D8000ED941540D822758212120B769000641204F890EA60120B85E58270047582022273
:200DA000758200227F00758202C007120B76901388120B85E582D00770027F03758207C08B
:180DC00007120B767582A5120B8290000A1204F8120C45D0078F822231
:200DD800AF837D008D037CF4ED9029CB938B828C83F00DBD2F0040ECEFC313FE53067E90ED
:200DF800F402EEF0782FE208E290F40FF0782FE290F410F0A2AFE433FFC2AFAEC743C702AB
:200E1800C007C00612F400D006D0078EC7EF24FF92AF22AE82AF838E108F117831E2FC0881
:200E3800E2FD7833E2FA08E2FB8A068B071ABAFF011BEE4F601D851082851183E493FFA33B
:140E58008582108583118C828D83EFF0A3AC82AD8380D622E0
:2029CB0075AD0075AC0075AE01E5AE20E7FB9000007F027E0075AE027D02E0A3F5AFDDFABF
:0F29EB00E5AE20E6FBDEF1DFEFE5AE20E7FB22F5
:200E6C007835E4F27835E2B4060050097835E2783504F280EF22C28443FD102253FDEF2265
:200E8C00C28643FD402253FDBF7ED07F072086091EBEFF011FEE4F70F42253F3AF538FAF86
:200EAC00120E88020E92C284C28643FD5022120E88120E92120E6C120E82120E6C120E8CDC
:200ECC00020E6C120E82120E6C120E92120E6C120E88020E6CAF827E00EF30E70DC007C0B1
:200EEC0006120E88D006D007800BC007C006120E82D006D007EF2FFFC007C006120E6C12DC
:200F0C000E92120E6C120E8CD006D0070EBE080040C7120E88120E6C120E92120E6C30843F
:200F2C00047F0080027F01C007120E8C120E6CD0078F8222AF827E00C007C006120E88D063
:200F4C0006D0077D08C007C006C005120E6C120E92120E6CD005D006D007EE2EFC308404B5
:200F6C007B0180027B00EB4CFEC007C006C005120E8CD005D006D007DDCBEF6009C006125F
:200F8C000E82D0068007C006120E88D006C006120E6C120E92120E6C120E8C120E88120E10
:060FAC006CD0068E8222CB
:200FB200AE82AF837836E2FDE46206ED62077D08EF30E70EEE2EFBEF33FC630321630410C2
:200FD2008006EE2EFBEF33FC8B068C07DDE28E828F8322AE82AF838E04EFC4CCC4540F6C17
:200FF200CC540FCC6CCCEC04FD90FD68E0FCEDB50402802D78507420F274FC08F28D82C012
:2010120007C006C005122668E582D005D006D007700A90FD6874FFF07582002290FD68EDD6
:20103200F053060F7F0074202EF58274FC3FF583E0F58222AE82AF83C007C006120FE5AD4C
:2010520082D006D0070EBE00010F8E828F83C005120FE5AF82D0058F06E4FC4DF582EE4C0D
:20107200F5832290FD6A745AF07F0090FD6AE023FE74502FF582E434FCF583E090FD6A6E5D
:20109200F00FBF0E0040E490FD6AE0F5822290FC50E0FFBF4D1B90FC51E0FFBF521390FC90
:2010B2005EE0FFC007121075AE82D007EFB50601227F0074502FFDE434FCFE8F8274302455
:2010D20000F583E4938D828E83F00FBF100040E390FC50E0FFBF4D0A90FC51E0FFBF52025E
:2010F200801E7F0074502FF582E434FCF583E4F00FBF100040EE90FC50744DF0A37452F005
:20111200121075AF8290FC5EEFF02290FC50744DF0A37452F0121075AF8290FC5EEFF09003
:20113200FC5CE0FFBF02028006BF0302800122903000E493FFBF4D37903001E493FFBF52F5
:201152002E903002E493FF90FC52E0FEEFB5061F903003E493FF90FC53E0FEEFB506109052
:20117200300CE493FF90FC5CE0FEEFB50601227E007F008E0474F02FFDC3EE9410EF940021
:20119200500E74502EF58274FC3FF583E0FB80027BFF8C828D83EBF00EBE00010F8E048F82
:2011B2000574FC2D50CD782FE4F274F008F2903000020DD878507430F274FC08F2758238E5
:2011D200122668E5827003F5822290FC38E0701090FC39E0700A90FC3AE070047582012273
:2011F20090FC38E4F0A3F0A3F078527430F274FC08F27582380226D91211C6E5827003F56D
:20121200822278507430F274FC08F2758200122668E5827003F5822290FC3CE0FFBFE126D9
:2012320090FC3DE0FFBF101E90FC3EE0FFBF6D1690FC3FE0701090FC3AE0700A90FC3BE02A
:2012520070047582012290FC3074AAF090FC3AE4F0A3F0A374E1F0A37410F0A3746DF0A3E1
:20127200E4F078527430F274FC08F27582001226D9E5827003F582227F0074302FF582E496
:2012920034FCF583E4F00FBF100040EE90FC307403F0A3E4F0A374FEF078527430F274FC45
:2012B20008F27582010226D990FC60744DF0A37453F0A37401F0A37414F090FC5CE090FCBB
:2012D20064F090FC5DE090FC65F090FC52E090FC66F090FC53E090FC67F090FC55E090FC6F
:2012F20068F090FC54E090FC69F0A37440F0A37403F0A3E4F0A37418F0A37401F0A3E4F079
:20131200227E307FFCC007C0061212BAD006D0077D007C008D03EBC454F0FB8C02EA2BFB43
:20133200BB0A005008EB9029FA93FA8024BB1A005016C0058B05ED24F62460F582E434FC09
:20135200F583E0FAD0058009BB1A047AFE80027A008C0374102B2EF582E43FF583EAF00C1A
:20137200BC100040AF8D04EC04F5827850EEF2EF08F2C007C006C005122668E582D005D019
:2013920006D00790FD6BF07C0090FD6BE0602BBC10005026EC2EF582E43FF583E0FB8C02C0
:2013B20074102A2EF582E43FF583E0FAEBB50202800590FD6BE4F00C80CF90FD6BE0701F9C
:2013D2008D04EC04F582785274102EF2E43F08F2C007C006C0051226D9D005D006D0070D86
:2013F200BD0200500302132490FD6874FFF022AD82AC83783BE4F274F008F290FD6C74FF65
:20141200F0A3F07839E2F5F008E245F070030215228D028C037E0074FC5BFF90FD6EEEF0B5
:20143200EFA3F0530303783B7931E2F308E209F37833E4F2740408F28E828F83C005C00409
:20145200C003C002120E2BD002D003D004D0057837E2FE08E2FF8D368C377839E2F5380896
:20147200E2F5398A048B0574FC2D406CE538453960668E828F830EBE00010FC007C006C037
:2014920003C002120FE585823A90FD6CE0FCA3E0FD7836E53AF28C828D83120FB2E582853D
:2014B20083F0D002D003D006D00790FD6CF0E5F0A3F0783BE22AF58208E23BF583E53AF022
:2014D2000536E4B5360205370ABA00010B153874FFB538021539808B7837EEF2EF08F2ADB5
:2014F20036AC377839E538F2E53908F290FD6EE0FEA3E0FF783B792FE2F308E209F38E8268
:201512008F83C005C004120DD8D004D00502141590FD6CE0FEA3E08E82F58322AE82AF83ED
:2015320090FD7074FFF0A3F07C007D348E028F031EBEFF011FEA4B603C90FD70E0FAA3E031
:20155200FB8C828D837836E493F2A3AC82AD838A828B83C007C006C005C004120FB2E582DE
:201572008583F0D004D005D006D00790FD70F0E5F0A3F080B790FD70E0FEA3E08E82F58399
:2015920022AE82AD83AFF08E028D038F048A828B838CF01229ABF53BA31229ABF53CE53BDF
:2015B200453C70012274062EF53DE43DF53E8F3F74022EF540E43DF5418F42E4F543F544B3
:2015D200C002C003C0048540828541838542F01229ABFBA31229ABFCC3E5439BE5449CD0E8
:2015F20004D003D0025043C002C003C004853D82853E83853FF01229ABFBA31229ABFCE5CB
:20161200432BFBE5443CFCE543253BF582E544353CF583E4938B828C83F00543E4B5430234
:201632000544D004D003D002809674042EFEE43DFD8E828D838FF01229ABFEA31229ABFFF3
:20165200853D40853E41853F42C002C003C0048E048F05C3ED9404D004D003D002503CC0F0
:2016720002C003C0048540828541838542F01229ABFCA31229ABFDEE2CFCEF3DFDEE253B93
:20169200F582EF353CF583E4938C828D83F00EBE00010FD004D003D00280AE8A828B838C3B
:2016B200F01229ABFEA31229ABFF853D82853E83853FF0782F1229ABF2A31229AB08F28EEE
:2016D200828F83C004C003C002120DD8D002D003D0048A828B838CF0E412282DA302282DD0
:2016F200AFF0AE83E5827840F2EE08F2EF08F2783DE2FB08E2FC7A0074FC5CFF5304037897
:2017120040E2F54508E2F54608E2F5478545828546838547F01229ABFDA31229ABFEEAB5B1
:201732000506EFB50602804F7840E2F58208E2F58308E2F5F0C007C004C003C00212159305
:20175200D002D003D004D0078545828546838547F0EA12282DA3EF12282D7840E22402FDCA
:2017720008E23400FE08E2FF8D828E838FF0EB12282DA3EC12282D7840E22406FD08E2348C
:2017920000FE08E2FF8D828E838FF01229ABFDA31229ABFEEB2DF582EC3EF583783FE2F08D
:2017B2007840E22404FD08E23400FE08E2FF0BBB00010C8D828E838FF0EB12282DA3EC02FE
:2017D200282D7E107FFC78437440F274F408F278167440F274F408F27818E4F2743408F238
:2017F20090FC10C007C0061207EBE582D006D0077003F5822290FD72E4F0A3F090FD78F02F
:2018120074F0A3F090FD7AE4F0A3F090FD807410F074F8A3F0E4F54FF5507843791DE2F33E
:2018320008E209F38E828F83C007C00612096D78457460F274F708F2785AE54FF2E550085C
:20185200F2900013122848E5828583F0D006D00790FD82F0E5F0A3F075480090FD84E4F04A
:2018720090FD85F0F5497845E2F54A08E2F54BC006C007854A82854B83E0F54CA385824AC8
:2018920085834B90FD84E025E0F54D7401B54C06D007D0068009D007D006754E0180037590
:2018B2004E00C006C007E54E454DF54E90FD84F090FD85E025E0F54D7402B54C06D007D0D5
:2018D200068009D007D006754C018003754C00E54C424D90FD85E54DF0054974F825495048
:2018F2008EC006C0077845E54AF2E54B08F290FD82E0FEA3E0FF8E0474502FFDAB487A0055
:20191200EB2CFCEA3DFD783DECF2ED08F2783FE54EF290FD7275F000C007C006C003C002B2
:201932001216F2D002D003D006D00774662FFFEB2EFBEA3FFA783DEBF2EA08F2783FE54D8B
:20195200F290FD7A75F000C007C0061216F2D006D0070548C3E5489413D007D006500302DD
:20197200186D054FE4B54F020550AA4FAB50C3EA9428EB9401500302182C90FD7275F00063
:2019920012159390FD7A75F00012159375820122AE82AF837847E2F55108E2F552C3E551C8
:2019B200940FE5529400404C8E828F83C007C006120FE5AB82D006D007BB4D3874012EFAAF
:2019D200E43FFB8A828B83C007C006120FE5AB82D006D007BB4B1D74022EFAE43FFB8A8265
:2019F2008B83C007C006120FE5AB82D006D007BB010280047582022274032EFAE43FFB8AB6
:201A1200828B83C007C006121046858253858354D006D00774052EFCE43FFD8C828D83C02B
:201A320007C006120FE5AD82D006D00774062EFBE43FFC8B828C83C007C006C005120FE5AF
:201A5200858265D005D006D00774072EFAE43FFB8A828B83C007C006C00512104685825595
:201A7200858356D005D006D00774092EFAE43FFB8A828B83C007C006C0051210468582577F
:201A9200858358D005D006D007740B2EFAE43FFB8A828B83C007C006C00512104685825959
:201AB20085835AD005D006D007740D2EFAE43FFB8A828B83C007C006C00512104685826628
:201AD200858367D005D006D007C006C007E55124F1FEE55234FFFF8E518F5285555B8556F4
:201AF2005CC3E4955B7418955CD007D006500475820522E5657003021BD2C3ED95654003AC
:201B1200021BD2E56645677003021BD285665D85675EC37440955D7403955E5003021BD2C4
:201B3200C00585665F856760756100756200856563756400E56324FFFCE56434FFFD785CB1
:201B5200ECF2ED08F2ED3395E008F208F2855F828560838561F0E4C007C006122868AA8242
:201B7200AB83ACF0FDD006D007855568855669756A00756B00C3EA9568EB9569EC956AED2F
:201B9200956BD005503AC005785CE565F2E408F208F208F2855F828560838561F0C007C002
:201BB20006122868AA82AB83ACF0FDD006D007C3EA9568EB9569EC956AED956BD005500437
:201BD200758202228D037C000BBB00010CC3EB9563EC64808564F063F08095F05006AB5DF4
:201BF200AC5E8033C005E56324FFFAE56434FFFD785AEAF2ED08F2855D82855E83C007C08D
:201C120006122848AA82AD83D006D007E55BC39AFBE55C9DFCD005EBB55106ECB55202806E
:201C32000475820222C00590FC52E0FCAA53E4FBFDECB50206EDB503028004D0058023903F
:201C5200FC53E0FCAA54E4FBFDECB50206EDB503028004D005800BD00590FC54E0B5650288
:201C72008004C2008002D200A200E433FCED700FEC600C90FC5CE0FBBB020475820022EDB5
:201C92007046EC600A90FC5CE0FBBB0102803990FC5C7401F0AA5390FC52EAF0AB54A3EB5D
:201CB200F0A3E565F0A3E4F0AA55A3EAF0AB56A3EBF0AA57A3EAF0AB58A3EBF0AA66A3EA37
:201CD200F0AB67A3EBF08011EC600A90FC5CE0FCBC010280047582042290FC55E0FCC3EDFA
:201CF2009C50047582002290FC55E0C39D500475820422785AEDF2E408F2856682856783CC
:201D1200C007C006C005122848AB82AC83D005D006D00774342CFC8B828C83740F2EFEE480
:201D32003FFF7837EEF2EF08F27839E551F2E55208F2C005121401AE82AF83D005EEB559B2
:201D520006EFB55A028004758203220D90FC55EDF090FC5C7401F090FD69F075820022AF05
:201D7200F0AE83E5827849F2EE08F2EF08F290FD86E4F0A3F090FD86E0FBA3E0FC8B6C8CDB
:201D92006DC3E56C9468E56D94034004900000228B6E8C6F90FD8674012BF0E43CA3F08506
:201DB2006E82856F83120FE5E582FC60C8BCFE049000002290FD86E0FAA3E0FB90FD8674B7
:201DD200012AF0E43BA3F08A828B83C004120FE5AB82D0047A0090FD88EBF0EAA3F0BBFF9E
:201DF2005F90FD86E0FAA3E0FB8A828B83C004C003C002120FE5858270D002D0038570711C
:201E120075720085717475730074012AFEE43BFF8E828F83C003C002120FE5AF82D002D03C
:201E320003D0047E0090FD88EF4573F0EE4574A3F074022AFAE43BFB90FD86EAF0EBA3F036
:201E5200BC0302801D90FD86E0FBA3E0FC90FD88E0FAA3E0FF90FD86EA2BF0EF3CA3F0025C
:201E72001D8790FD86E0FBA3E0FC90FD88E0FAA3E0FFEA2BF573EF3CF574AE73AF74C37442
:201E9200689E74039F500490000022AB73AC7490FD86E0F573A3E0F5748573718574727441
:201EB200032571FAE43572FFC3EB9AEC9F5003022144857382857483C004C003120FE5AA39
:201ED2008274012571FEE43572FF8E828F83C002120FE5858273D002D003D004EA30E43AC6
:201EF20074022571FEE43572FF8E828F83C004C003C002120FE5AF82D002D003D00490FD94
:201F12008CEFF0E4A3F074032571FEE43572FF90FD8AEEF0EFA3F0021FC574022571FEE4ED
:201F32003572FF8E828F83C004C003C002120FE5E582D002D003D004702074032571FEE419
:201F52003572FF8E828F83C004C003C002120FE5E582D002D003D0046004900000227404EA
:201F72002571FEE43572FF8E828F83C004C003C002120FE5AF827E008F6F8E6E7405257108
:201F9200FDE43572FF8D828F83120FE5AF82D002D003D0047E0090FD8CEF456EF0EE456F0C
:201FB200A3F074062571FEE43572FF90FD8AEEF0EFA3F090FD8EE4F0EA30E32C90FD8AE05E
:201FD200FEA3E0FF90FD8A74012EF0E43FA3F08E828F83C004C003C002120FE5E582D00265
:201FF200D003D00490FD8EF08A07530707BF020280030221067405B57302800302210690DD
:20201200FD8AE0F571A3E0F572857182857283C004C003C002120FE5AF82D002D003D0040C
:20203200BF7802800302210674012571FEE43572FF8E828F83C004C003C002120FE5AF8274
:20205200D002D003D004BF2F02800302210674022571FEE43572FF8E828F83C004C003C05C
:2020720002120FE5AF82D002D003D004BF6D02800302210674032571FEE43572FF8E828F8E
:2020920083C004C003C002120FE5AF82D002D003D004BF705F74042571FEE43572FF8E827E
:2020B2008F83C004C003C002120FE5AF82D002D003D004BF6B3E90FD8CE0FFA3E0FE784961
:2020D200E2F58208E2F58308E2F5F0EF12282DA3EE12282DAF737E00EF2571F571EE3572F6
:2020F200F57290FD8EE07F002571FDEF3572FF8D828F8322C003C004AE737F0090FD8AE064
:20211200FCA3E0FDEE2CFCEF3DFD90FD8EE07E002CFCEE3DFD90FD8CE0FEA3E0FF90FD869D
:20213200EE2CF0EF3DA3F0EAD004D00320E603021EA19000002290FD6874FFF090FD69E485
:20215200F01210A012120AE582700A90FC707401F07582032290FD8F75F000121D71AE82DE
:20217200AF838E0590FC71EDF08F05A3EDF090FD8FE090FC73F090FD8FE0A3E090FC74F040
:20219200EE4F70071213137582002290FD8FE0FCA3E0FD7847ECF2ED08F28E828F831219DF
:2021B200A2AF8290FC5DEFF0BF040F90FC5CE0FEBE0102800590FC55E4F0EF706E90FC5531
:2021D200E0FF1582E0FEEFB5066190FC5CE0FFBF015990FC56E0FFA3E0FDE4FC4FF582EDDA
:2021F2004CF58312152EAE82AF8390FC58E0FDA3E0FBE4FCFAED4204EA4203EEB50406EF3B
:20221200B50302800890FC5D7406F0800D1217D4E582700690FC5D7407F090FC5DE060042F
:202232007F0380027F0290FC5CEFF012111D12131390FC5DE090FC70F090FC5DE060047571
:2022520082032290FD69E07003F5822290FC5CE0FFBF02047F0280027F018F822290FD9183
:20227200E4F0FEFF7854744CF2E408F2746008F2758206C007C006122735E582D006D00745
:20229200700475820122784CE230E00790FD91E4F0801290FD91E02401F0E0FDBD0500406B
:2022B2000475820122900014C007C0061204F8D006D0070EBE00010F8E048F05C3EC94B805
:2022D200ED940B409F7582002290FD92E4F01226517854744DF2E408F2746008F2758206C4
:2022F200122735E582604A784DE230E00890FD927401F0803C78507430F274FC08F275828F
:2023120001122668E58260297F00BF0C00501974302FF582E434FCF583E0FEEF9029FA937E
:20233200FDEEB505030F80E290FD92BF0C00E433F012280312265F90FD92E0F5822290FD88
:2023520093E4F0A3F0FEFF30912190FD93E02401F0A3E03400F090FD93E0FCA3E0FDC3ECAB
:20237200940AED9400400B7582012290FD93E4F0A3F090000AC007C0061204F8D006D0075E
:202392000EBE00010F8E048F05C3EC9470ED941740B575820022AF827E0074702EF582E4B4
:2023B20034FCF583E4F00EBE100040EEBF010FC007122350E582D007700475820422C007D4
:2023D200122651D007BF020E12226FE582700712265F75820422122148AF82C007122803D7
:2023F20012265FD0078F822212265190FD6874FFF01210A012120AE582600312131312281D
:202412000302265FAE82AF837C307DFC8E028F03C374689A74039B50047E687F03C007C0E9
:2024320006C005C00412265112120AD004D005D006D00790FD95E4F0A3F090FD95E0FAA3C6
:20245200E0FBC3EA9EEB9F400302251B7B00EB2CF575E43DF5768B7775780090FD95E0F5C7
:2024720079A3E0F57AC004C005E5772579FAE578357AFDC3EA9EED9FD005D0045021C004A4
:20249200C005E5772579FAE578357AFD74102AF58274F83DF583E0F579D005D00480037533
:2024B2007900AA79857582857683EAF00BBB1000409CC006C00790FD95E0FAA3E0FB8A0651
:2024D200C4CEC4540F6ECE540FCE6ECEFFEE04F5827852ECF2ED08F2C007C006C005C0047B
:2024F200C003C0021226D9D002D003D004D005D006D00774102AFAE43BFB90FD95EAF0EB90
:15251200A3F0D007D00602244C12280312265F7582000223A86A
:0C29FA000318D20510782F6D70734D5338
:20252700AF82784EE22410FDE434F8FE7850EDF2EE08F28F82122668E582700790F810E0E6
:2025470054FEF0227F00EF2410F582E434F8F58374EEF00FBFA00040ED90F810E4F01226DE
:202567005F9000141204F8122812AF8290F811EFF0E060047F0180027F0290F814EFF012FA
:2025870026519000141204F8122812AF8290F812EFF090F8107401F0784EC4F27582001293
:2025A7002527784E7420F2758238122527784E7430F2758239122527784E7440F275823A68
:2025C7001225277F008F06EE04F5828F06EEC454F0FE784E74502EF2C007122527D0070FDB
:2025E700BF040040E090F813E4F0FF7854744FF2E408F2746008F28F82C007122735E582A9
:20260700D007601D8F0674082E2410F582E434F8F583784FE2F090F813E0FE0E90F813EE44
:20262700F00FBF080040C4785074902410F2E434F808F2758240122668E582600790F81090
:0A264700E04402F012280302265FAF
:20265100D29043FE01120EA69000050204F8120EB2C29043FE0122AF82C007120EBA75821B
:20267100AA120EE1E582D00760098F82120EE1E5827007120ECF75820022120ECF120EBA36
:202691007582AB120EE1E5827007120ECF758200227F007850E22FFD08E23400FEBF0F0061
:2026B100E433F582C007C006C005120F40AC82D005D006D0078D828E83ECF00FBF100040FE
:2026D100D2120ECF75820122AF82C007120EBA7582AA120EE1E582D00760098F82120EE1E1
:2026F100E5827004C2018002D201A201E433FF7E00EF6020BE1000501B7852E22EF582089E
:20271100E23400F583E0F582C006120EE1AF82D0060E80DDC007120ECF9000061204F8D060
:20273100078F8222AF82C007120EBA7582AA120EE1E582D00760177582FEC007120EE1E583
:2027510082D00760098F82120EE1E5827007120ECF75820022120ECF120EBA7582AB120E23
:20277100E1E5827007120ECF758200227854E2FD08E2FE08E2FF758200C007C006C00512AA
:202791000F40AC82D005D006D0078D828E838FF0EC12282D120ECF75820122AF82C0071224
:2027B1000EBA7582AA120EE1E582D007602F7582FEC007120EE1E582D00760218F82120E24
:2027D100E1E58260187857E2F582120EE1E582600C7858E2F582120EE1E5827004C20280E3
:2027F10002D202A202E433FFC007120ECFD0078F822278577440F27858E4F2758206022737
:1C281100ACC29143FE029000011204F853FEFD9000031204F8A291E433F58222F8
:06010500E478FFF6D8FDCE
:2000E3007900E94400601B7A00902A0678977593FDE493F2A308B800020593D9F4DAF2751A
:0201030093FF68
:1B282D0020F71130F6138883A88220F509F6A8837583002280FEF280F5F022AA
:20284800AA83AB828BF090FD5AE0A4F8A9F08AF0E0A429F98BF0A3E0A429F58388822222EE
:20286800AF82AE83ADF0FC7860EFF2EE08F2ED08F2EC08F27860E2FF785EE28FF0A4FFADA7
:20288800F07866EFF208EDF27860E2FF785CE28FF0A4FFADF07864EFF208EDF27867E2FF08
:2028A8007863E2FE785CE28EF0A42FFF7867F27862E2FE785DE28EF0A42F7867F27866E22B
:2028C800FE08E2FF7862E2FD785CE28DF0A4ABF02EFEEB3FFF7866EEF208EFF27861E2FD2A
:2028E800785DE28DF0A4ABF02EFEEB3FFF7866EEF208EFF27861E2FF785EE28FF0A47863F1
:20290800F27861E2FF785CE28FF0A4FFADF07861EFF208EDF27860E2FF785FE28FF0A478E0
:202928005FF27860E2FF785DE28FF0A4FFADF0785DEFF208EDF2785CE4F27860F27864E240
:20294800F51008E2F51108E2F51208E2F5137860E2FA08E2FB08E2FE08E2FFEA2510F51009
:20296800EB3511F511EE3512F512EF3513F5137864E510F208E511F208E512F208E513F207
:20298800785CE2FC08E2FD08E2FE08E2FFEC2510FCED3511FDEE3512FEEF35138C828D83F0
:0329A8008EF0228C
:20010B007868E84400600A79007593FDE4F309D8FC782FE84400600C790190FD68E4F0A307
:04012B00D8FCD9FA29
:0D00D60075817A1229C7E58260030200D10E
:1C29AB0020F71430F6148883A88220F507E6A88375830022E280F7E49322E0223B
:0429C70075820022F3
:00000001FF
